:020000040800F2
:100000006807002061020008AD09000835060008F5
:10001000A909000859040008410D0008000000006B
:10002000000000000000000000000000290A000895
:100030008505000800000000250A00082D0A0008B8
:100040007B0200087B0200087B0200087B0200089C
:100050007B0200087B0200087B0200087B0200088C
:100060007B0200087B0200087B0200087B0200087C
:100070007B0200087B0200087B0200087B0200086C
:100080007B0200087B0200087B02000800000000E1
:100090000000000000000000000000007B020008DB
:1000A0007B0200087B0200087B0200087B0200083C
:1000B0007B0200087B0200087B0200087B0200082C
:1000C0007B0200087B0200087B0200087B0200081C
:1000D0007B0200087B0200089D0B00080000000066
:1000E0007B0200087B0200087B0200080000000081
:1000F0000000000000000000000000007B0200087B
:10010000000000007B0200087B0200087B02000860
:1001100000000000000000000000000000000000DF
:100120007B0200087B0200087B0200087B020008BB
:100130007B0200080000000000000000000000003A
:100140000000000000000000000000007B0200082A
:100150007B0200087B0200087B0200087B0200088B
:100160007B0200087B020008000000000000000085
:10017000000000000000000000000000000000007F
:10018000000000007B0200080000000000000000EA
:100190007B02000800F002F800F052F814A696E87E
:1001A000000CB244B344DA4501D100F049F8BAE892
:1001B0000F000FA696E83000A5EB040504EB060738
:1001C000AAEB0704A7F101074FEA15154FEA34140B
:1001D000A4F10104AC4201D300F032F813F0010F96
:1001E00018BFFB1A43F0010300F001F8DBE71847E2
:1001F0009C0E0000BC0E0000103A24BF78C878C1E5
:10020000FAD8520724BF30C830C144BF04680C601C
:1002100070470000704700000023002400250026DE
:10022000103A28BF78C1FBD8520728BF30C148BF59
:100230000B6070471FB500F00BFF1FBD10B510BD60
:1002400000F0D0F81146FFF7F5FF00F07BFD00F05D
:10025000EEF803B4FFF7F2FF03BC00F0F5F800007E
:100260000948804709480047FEE7FEE7FEE7FEE74A
:10027000FEE7FEE7FEE7FEE7FEE7FEE70448054986
:10028000054A064B70470000890B000895010008DD
:100290006801002068070020680300206803002030
:1002A00053EA020C00F069802DE9F04B4FF0000694
:1002B000002B1FBFB3FA83F503FA05F424FA05F601
:1002C0005E4012BF1643B2FA82F502FA05F4C5F198
:1002D00020051EBF22FA05FC44EA0C04203556EA2C
:1002E000044C4FEA144418BF641C4FF000084FF050
:1002F0000009904271EB030C39D3002919BFB1FA00
:1003000081F701FA07F6B0FA80F700FA07F6C7F1AD
:1003100020071EBF20FA07FC46EA0C062037B6FB72
:10032000F4FCA7EB0507103F07F01F0BCBF12006ED
:100330002CFA06F60CFA0BFB44BFB3460026202F1E
:10034000A4BF5E464FF0000B5BEA060C08BF4FF0FF
:10035000010B19EB0B0948EB0608ABFB027C06FB13
:1003600002CC0BFB03CCC01B71EB0C01C1E70B46AD
:10037000024641464846BDE8F08B13B5084318BF16
:100380004FF0FF300146AFF30080BDE81C407047DE
:100390004FF0000200B5134694469646203922BF1E
:1003A000A0E80C50A0E80C50B1F12001BFF4F7AF69
:1003B000090728BFA0E80C5048BF0CC05DF804EB4B
:1003C000890028BF40F8042B08BF704748BF20F8B9
:1003D000022B11F0804F18BF00F8012B70477047B7
:1003E00070477047754600F02BF8AE460500694629
:1003F000534620F00700854618B020B5FFF73EFFB2
:10040000BDE820404FF000064FF000074FF0000815
:100410004FF0000BAC46ACE8C009ACE8C009ACE852
:10042000C009ACE8C00921F007018D46704710B53E
:100430000446AFF300802046BDE81040FFF709BF37
:10044000004870470800002001491820ABBEFEE7B5
:100450002600020070470000FEE700002DE9F04191
:1004600090B043F63000C4F2020001680DF10408B8
:1004700041F4001101600068382100F4001001907F
:10048000019808F10400FFF783FF46F200054020C1
:1004900044F20444C4F202054FF0006703900026C2
:1004A000C4F200042846062142460A9706960194A3
:1004B000059600F0C1F840F26800C2F20000029018
:1004C0004FF4806006904FF4807009904FF4003034
:1004D0000B90284605214246CDE90C66CDE90E6613
:1004E0000A9703960896049601940796059600F0DD
:1004F000A3F8D5F8880040F00100C5F8880044F260
:100500001440C4F2000000BF50E8001F41F0400159
:1005100040E800125AB350E8001F41F0400140E8A3
:10052000001222B350E8001F41F0400140E80012E1
:10053000EAB150E8001F41F0400140E80012002AF3
:10054000E2D114E050E8001F41F0800140E80012C1
:10055000AAB150E8001F41F0800140E8001272B1DA
:1005600050E8001F41F0800140E800123AB150E825
:10057000001F41F0800140E80012002AE2D110B0D3
:10058000BDE8F0817047000080B586B043F63000CA
:10059000C4F20200016841F002010160006810210C
:1005A00000F00200009000980220059001900020C9
:1005B000039004900120029040F200400091C4F2A8
:1005C0000200694600F080F806B080BD2DE9F041D8
:1005D00086B043F63000C4F202000168002441F006
:1005E000010101600068C4F2020400F00100009003
:1005F000009804206D464FF007080227002600905F
:1006000020462946CDF81480019703960496029758
:1006100000F05AF808200090012004902046294656
:100620000396CDF814800197029700F04DF806B0BC
:10063000BDE8F081FEE7000070B5D2E902C3D2E95F
:1006400004E443EA0C03D2E9065643EA0E032343CB
:100650002B4341F28205C0F600053343966A695C7C
:1006600033430E5848F21F05CFF6FC752E40334336
:100670000B50D36A014493B14869D2E90C6520F06C
:10068000070030431843946B4861086820F0C0703D
:1006900028430860086820F4C00020430860D2E9BD
:1006A0000003D2E90826CB60886048684FF6FF73E4
:1006B000984310434860086820F0606040EA0602F2
:1006C00000200A6070BD00002DE9F04F0E6896FA18
:1006D000A6F2B2FA82F236FA02F363D04FF00108C2
:1006E0004FF0030C0CE000BFD1E900630768AB409A
:1006F00007EA0A073B430360013236FA02F351D09E
:1007000008FA02F316EA0304F6D0D1F804E0AEF1D9
:100710000103022B94FAA4F31AD2B3FA83F6D0F8A9
:1007200008907500D1E902AB0CFA05F329EA030938
:100730000AFA05F747EA0907876047686FEA030A7C
:1007400027EA04090BFB04F747EA0907476006E0BC
:10075000B3FA83F675000CFA05F36FEA030A0F6922
:10076000C368AF4003EA0A033B43BEF1020FC36014
:10077000BAD1E3B2240AD1F814E094FAA4F4002B1D
:1007800008BFB4FA84F64FF0200308BF2423C458EE
:10079000B6000F27B740BC430EFA06F72743C750F1
:1007A000A2E700BF0020BDE8F08F000044F6D3515F
:1007B000C1F26201A0FB01014FF0FF3000EB91108C
:1007C0004EF21001CEF20001486000208860052042
:1007D0000860704780B543F6040EC4F2020EDEF8DE
:1007E000042002F00C0342F20042082BC0F2F40293
:1007F00006D0042B22D147F64002C0F27D121DE044
:10080000DEF80030DEF800C05B0247F64003C0F2BD
:100810007D1358BF13460CF03F0CDEF80020B3FBED
:10082000FCFCDEF80030C2F3881202FB0CFCC3F3C0
:100830000143022202EB4302BCFBF2F20260DEF84B
:10084000043041F26A01C3F30313C0F60001C95C2E
:1008500041F27A0322FA01F14160DEF80420C0F689
:100860000003C2F382229A5C21FA02F28260DEF86F
:100870000420C2F342329A5CD140C16080BD0000C6
:1008800040F20001C2F20001086070472DE9F0411A
:1008900084B00446C068800460D40D46E06849F224
:1008A0000C6105F1040C88439CE88E10AE69084386
:1008B000184338433043E0602069E84620F4405054
:1008C00010432061606908F10C0720F4407040EA91
:1008D0000C0060614046FFF77DFF41F20040C4F22A
:1008E000010084420DD041F20000C4F201008442B4
:1008F00007D044F20040C4F2000084422ED108F137
:100900000807386850B32B6843B3A9694FF69C7643
:100910001922C0F6FF76B1F5004FA0FB020121D1EC
:100920005A00DB0FFFF7BCFC48F21F51C5F2EB1178
:10093000A0FB01235A0906F1805302FB0300322376
:1009400003EBC000A0FB01014FF4F87000EA1110A6
:1009500000EB0210C1F342111DE000BF012004B002
:10096000BDE8F0819A009B0FFFF79AFC48F21F51F7
:10097000C5F2EB11A0FB01235A0902FB060032234A
:1009800003EB0010A0FB0101F02000EA511000EB86
:100990000210C1F343114FF6F07210400844A060FA
:1009A000002004B0BDE8F081FEE70000FEE7000093
:1009B00081B043F64000C4F20200016841F0020138
:1009C00001600068532100F002000090009840F29E
:1009D0000040C4F20000816244F61F61C162816977
:1009E00041F0600121F01301816140F2DC5141636B
:1009F000816941F008018161016A21F0020101620F
:100A0000016A41F001010162016841F08001016069
:100A1000016841F001010160416941F0010141615A
:100A200001B0704770470000704700007047000039
:100A3000B0B543F60005C4F20205D5F80004022162
:100A400061F30200C5F80004D5F8000400F00700C7
:100A5000022811D0D5F8000400F0070002280BD0BE
:100A6000D5F8000400F00700022805D0D5F80004EE
:100A700000F007000228E7D147F20400C4F20000AA
:100A800050F8041C022262F38F3140F8041C2968DC
:100A9000102262F3C7012960296841F00101296031
:100AA0002968890709D4296889075CBF29685FEA32
:100AB000817102D429688907F2D5696848F2000279
:100AC000CFF6BF72114045F2104211436960696868
:100AD000012262F311416960296841F08071296047
:100AE000296889010AD4296889015CBF29685FEAFD
:100AF000811103D429688901F2D500BF0168490436
:100B000009D4016849045CBF01685FEA414102D42D
:100B100001684904F2D5A868042120F0F000A8601B
:100B2000A86861F38C20A860A868022120F46040C6
:100B3000A860A86861F30100A86000BFA86800F081
:100B40000C0008280ED0A86800F00C00082809D076
:100B5000A86800F00C00082804D0A86800F00C0079
:100B60000828EBD14BF60054C0F201542046FFF7A1
:100B70001DFE2046FFF784FED5F88C0020F0807023
:100B8000C5F88C00B0BD00004EF68850CEF20000D3
:100B9000016841F4700101607047000044F20040B8
:100BA000C4F200000168C90658BF704710B582B092
:100BB00041F20001C4F2010146F288040A68496862
:100BC000C4F202046168226822F001022260026815
:100BD0000192019A406801900198C1F5807081B23C
:100BE00040F26800C2F2000000F06AF860684FF45A
:100BF000807161F30F006060206840F001002060A8
:100C000002B0BDE81040704710B588B043F6400010
:100C1000C4F20200016844F20C4441F40031016066
:100C20000068C4F2000400F40030019001984FF411
:100C3000165001900020CDE906000490CDE9020095
:100C40000C200590A4F10C0001A9FFF71FFE6068BD
:100C500020F490406060A06820F02A00A06000BFEF
:100C600054E8000F40F0100044E80001A9B154E836
:100C7000000F40F0100044E8000171B154E8000F8B
:100C800040F0100044E8000139B154E8000F40F092
:100C9000100044E800010029E2D14EF22640CEF2D5
:100CA0000000102101704EF20410CEF2000040212D
:100CB0000160206840F40050206008B010BD0000C2
:100CC000002818BF002901D1704700BF10B54CF6AD
:100CD000CD4C4FF0000ECCF6CC4C00BF10F8013BD1
:100CE000A3F13A02D2B2F62A20D3A3F13002D3B252
:100CF000DA43A2FB0C24BEEBD40F17D80EEB8E0206
:100D0000013903EB420EE9D1704600F090F89FEDF7
:100D10000A0B53EC102B00F09DF800F05BF840F24A
:100D2000344100F57A70C4F200010860BDE810405B
:100D3000704700BF00BF00BF333333333333164037
:100D4000FEE7000082B043F64000C4F202004168B2
:100D50004FF6FF0241F48041416041684FF0FF339C
:100D600001F4804100910099016841F080510160D7
:100D7000006800F08050019001984EF60C50CEF2C1
:100D800000000168114040F20032C0F2FA521143F3
:100D900001600168C1F3022181F00702042A28BF23
:100DA0000422033903FA02F238BF0021D24302FAC7
:100DB00001F10901C175FFF73BFEFFF7E5FBFFF706
:100DC000F7FDFFF703FCFFF71FFFFFF747FB00BF2F
:100DD000FEE700004FEA1153A3F58063D3F11E0331
:100DE000A8BFD3F1200C08DB4FF0004242EAC12239
:100DF00052EA505232FA03F0704709420BD4102BDA
:100E0000C4BF0020704703F5787CBCF1FF3F05D0DC
:100E10004FF0FF3070474FF00000704770B500F0A2
:100E2000C3F800BF4992248000207047F0E7B0FA71
:100E300080F310FA03F10AD0C3F11D0303F58063B8
:100E40004FEA03524FEA415002EBD12170474FF075
:100E50000000704770B5DFF848C11CEA111E1EBFC4
:100E60001CEA13159EEA0C0F95EA0C0F00F06F8038
:100E700081EA03044EEAD47EAE4421EA4C1123EA0F
:100E80004C1341F4801143F48013AEF17F7EA1FB3B
:100E9000024CA0FB0365361955EB0C05A1FB034C76
:100EA0004CF10003A0FB021C16EB0C06654153F14C
:100EB0000003094218BF46F0010613F4007F0BD16E
:100EC0004FEA03314FEA053041EA155140EA165026
:100ED00034036FF003020AE04FEAC3214FEAC52052
:100EE00041EA555140EA5650F4026FF0020202EB1B
:100EF0002E4201EB025585EACE710AD05FEA440C1E
:100F000018BF24F0004450F1000041F1000120EA34
:100F1000D47040F2FE7C624500D270BDA84214BF7E
:100F20004FF080444FF04044002E08BF0024BEF133
:100F3000806FA8BFA1F1C041BDE8704080F28280FF
:100F400001F1C04101F000414FF0000070470CEA90
:100F500013159EEA0C0F18BF95EA0C0F06D081EA14
:100F6000030E4FF000000EF0004170BD00F01CF8C1
:100F70008900013E00F007B800F009B84FEA430CC1
:100F80005FEA5C5C08D081EA030100F05BB84FEADD
:100F9000410C5FEA5C5CF6D102494FF000007047FB
:100FA0000000FF070000F87F0EF1020E2EF0030E86
:100FB0005EF8046B364205D4012A43EB030515F5B0
:100FC000001F12D8012841EB010C1CF5001F0CD8A2
:100FD0000ED14FEAD17C0CEB4C0C0CF1020C15F548
:100FE000001F08BF4CEBD37C04E04FF0080C01E07D
:100FF0004FEAD37C0CEB4C0526FA05F606F0070603
:10100000B6F1040C06D20EEB860CBDE870404CF035
:10101000010C6047DFE80CF0090B02024FF00041C1
:10102000A1F500214FF0000070BD194610460128BF
:1010300051EB010418BFD4F5001484BF002001F067
:10104000004170BD0808A0F500114FEA310170475A
:10105000F1EE100A4FF6FF71C0F2C03120EA010034
:1010600040F04070E1EE100A704700000000000000
:101070000000010203040607080900000000010245
:101080000304102840587088A0B80000B010000871
:101090000000002008000000F8010008B810000857
:1010A000080000206007000018020008000000008F
:0810B0000024F4000000000020
:040000050800019559
:00000001FF
