:020000040800F2
:100000007008002061020008ED170008FD070008D5
:10001000E917000885050008B11D00080000000070
:10002000000000000000000000000000251A000889
:100030003507000800000000C9180008291A000848
:100040007B0200087B0200087B0200087B0200089C
:100050007B0200087B0200087B0200087B0200088C
:100060007B0200087B0200087B0200087B0200087C
:100070007B0200087B0200087B0200087B0200086C
:100080007B020008890500087B02000800000000D0
:100090000000000000000000000000007B020008DB
:1000A0007B0200087B0200087B0200087B0200083C
:1000B0007B0200087B0200087B0200087B0200082C
:1000C0007B0200087B0200087B0200087B0200081C
:1000D0007B0200087B020008F11A00080000000003
:1000E0007B0200087B0200087B0200080000000081
:1000F0000000000000000000000000007B0200087B
:10010000000000007B0200087B0200087B02000860
:1001100000000000000000000000000000000000DF
:100120007B0200087B0200087B0200087B020008BB
:100130007B0200080000000000000000000000003A
:100140000000000000000000000000007B0200082A
:100150007B0200087B0200087B0200087B0200088B
:100160007B0200087B020008000000000000000085
:10017000000000000000000000000000000000007F
:10018000000000007B0200080000000000000000EA
:100190007B02000800F002F800F052F814A696E87E
:1001A000000CB244B344DA4501D100F049F8BAE892
:1001B0000F000FA696E83000A5EB040504EB060738
:1001C000AAEB0704A7F101074FEA15154FEA34140B
:1001D000A4F10104AC4201D300F032F813F0010F96
:1001E00018BFFB1A43F0010300F001F8DBE71847E2
:1001F0009C210000BC210000103A24BF78C878C1BF
:10020000FAD8520724BF30C830C144BF04680C601C
:1002100070470000704700000023002400250026DE
:10022000103A28BF78C1FBD8520728BF30C148BF59
:100230000B6070471FB502F039F81FBD10B510BD37
:1002400000F066F91146FFF7F5FF01F035FE00F00A
:1002500084F903B4FFF7F2FF03BC00F08BF9000050
:100260000948804709480047FEE7FEE7FEE7FEE74A
:10027000FEE7FEE7FEE7FEE7FEE7FEE70448054986
:10028000054A064B70470000DD1A0008950100087A
:10029000700200207008002070040020700400200C
:1002A00053EA020C00F069802DE9F04B4FF0000694
:1002B000002B1FBFB3FA83F503FA05F424FA05F601
:1002C0005E4012BF1643B2FA82F502FA05F4C5F198
:1002D00020051EBF22FA05FC44EA0C04203556EA2C
:1002E000044C4FEA144418BF641C4FF000084FF050
:1002F0000009904271EB030C39D3002919BFB1FA00
:1003000081F701FA07F6B0FA80F700FA07F6C7F1AD
:1003100020071EBF20FA07FC46EA0C062037B6FB72
:10032000F4FCA7EB0507103F07F01F0BCBF12006ED
:100330002CFA06F60CFA0BFB44BFB3460026202F1E
:10034000A4BF5E464FF0000B5BEA060C08BF4FF0FF
:10035000010B19EB0B0948EB0608ABFB027C06FB13
:1003600002CC0BFB03CCC01B71EB0C01C1E70B46AD
:10037000024641464846BDE8F08B13B5084318BF16
:100380004FF0FF300146AFF30080BDE81C407047DE
:1003900010B5431C02E010F8011B71B18107FAD1BE
:1003A0004FF0013202C88C1A8C4314EAC211F9D002
:1003B000C01A0A0603D0C01E10BDC01A10BD0A0420
:1003C00001D0801E10BD0902FCD0401E10BD032AC2
:1003D00040F2308010F0030C00F0158011F8013B62
:1003E000BCF1020F624498BF11F801CB00F8013B49
:1003F00038BF11F8013BA2F1040298BF00F801CB0D
:1004000038BF00F8013B11F0030300F04F80083AB9
:10041000C0F0088051F8043B083A51F804CBA0E83A
:100420000810F5E7121D5CBF51F8043B40F8043B8F
:10043000AFF30080D20724BF11F8013B11F801CBC4
:1004400048BF11F8012B24BF00F8013B00F801CB95
:1004500048BF00F8012B70474FF0000200B513466B
:1004600094469646203922BFA0E80C50A0E80C50D4
:10047000B1F12001BFF4F7AF090728BFA0E80C5085
:1004800048BF0CC05DF804EB890028BF40F8042B7E
:1004900008BF704748BF20F8022B11F0804F18BFEB
:1004A00000F8012B704770477047704710B5203A2D
:1004B000C0F00B80B1E81850A0E81850B1E818500F
:1004C000A0E81850203ABFF4F5AF5FEA027C24BFE1
:1004D000B1E81850A0E8185044BF18C918C0BDE8CA
:1004E00010405FEA827C24BF51F8043B40F8043B93
:1004F00008BF7047D20728BF31F8023B48BF11F848
:10050000012B28BF20F8023B48BF00F8012B7047A1
:10051000754600F02BF8AE4605006946534620F0BC
:100520000700854618B020B5FFF7A8FEBDE82040BB
:100530004FF000064FF000074FF000084FF0000B9F
:10054000AC46ACE8C009ACE8C009ACE8C009ACE80E
:10055000C00921F007018D46704710B50446AFF37E
:1005600000802046BDE81040FFF773BE004870478A
:100570000800002001491820ABBEFEE7260002005B
:1005800070470000FFE7FEE780B582B046F200004A
:10059000C4F2020000F072FA90B1FFE746F20000E8
:1005A000C4F20200019000F073F90198062100F0F6
:1005B000ADF944F20040C4F2000000F0AFFFFFE7E5
:1005C00002B080BD80B59AB04FF4001000F018F969
:1005D0000BA806903C210291FFF73EFF069A4FF0D0
:1005E00000600790149040200D900020059012901C
:1005F0004FF48061039110910E9044F20441C4F2D3
:10060000000104910B9111900F90159046F200009B
:10061000C4F2020009900621019100F0D7F9019976
:10062000099800F093F9112001F0C4FB0299069893
:10063000FFF712FFDDF80CC0049B0599069A099894
:10064000DDF81CE0CDF850E00D9140F26C1EC2F2D6
:10065000000ECDF830E01291CDF840C04FF4807C10
:10066000CDF838C0CDF84CC00B9311910F914FF4D9
:10067000003115910521089100F0A8F90899099811
:1006800000F074F944F20040C4F200000A9000F057
:1006900065FF0A9800F078FF1AB080BD83B0029021
:1006A000ADF806108DF805200020ADF80200FFE738
:1006B000BDF80200BDF80610884227DAFFE702986D
:1006C000BDF80210405C8DF801009DF801000D2876
:1006D00005D0FFE79DF801000A2801D1FFE715E0EA
:1006E0009DF8010040F26811C2F200010B7840F25F
:1006F0006802C2F20002D054087801300870FFE7A7
:10070000BDF802000130ADF80200D1E79DF8050008
:10071000C00760B9FFE740F26810C2F2000002783B
:1007200040F26801C2F2000100208854FFE703B0E4
:10073000704700007047000080B588B0022001902B
:1007400000F05EF801990020079006900590049053
:100750000390029007910391059010210291069059
:100760000120049040F20040C4F2020002A900F00F
:1007700059FA08B080BD000010B58CB0012001907E
:1007800000F03EF8002104910B910A910991089123
:1007900007910691072000900B900220029007908D
:1007A0000991042206920A9108900020C4F20200E6
:1007B000059006A9039100F035FADDF800C0019B11
:1007C000029A0399DDF810E00598CDF82CE0CDF8F9
:1007D00028E0CDF824E0CDF820E0CDF81CE0CDF8FD
:1007E00018E0CDF82CC007924FF0080CCDF818C0D7
:1007F0000A93089200F016FA0CB010BDFFE7FEE76E
:1008000082B00190019A43F63000C4F20200016800
:10081000114301600068019908400090009802B0FF
:100820007047000082B00190019A43F64000C4F284
:1008300002000168114301600068019908400090BE
:10084000009802B07047000082B00190019A43F610
:100850004000C4F202000168114301600068019980
:1008600008400090009802B07047000082B00190EC
:10087000019A43F64400C4F202000168114301608A
:100880000068019908400090009802B0704700008D
:1008900081B0009000994FF40010C86001B070471B
:1008A00084B003900291019200930398029942F25E
:1008B000F322C0F60002515C0844406920F00700B2
:1008C0000199009B194308430399029BD25C114490
:1008D000486104B07047000083B00290019100921B
:1008E0000298019942F2F322C0F60002515C40588E
:1008F00048F21F01CFF6FC710840009908430299A5
:10090000019BD25C885003B07047000082B0019018
:1009100000910199009A42F20330C0F60000825C17
:10092000885820F00100885002B0704782B00190D2
:1009300000910199009A42F20B30C0F60000825CEF
:10094000885820F00100885002B0704782B00190B2
:1009500000910199009A42F2FB20C0F60000825CEF
:10096000885840F01000885002B0704782B0019063
:1009700000910199009A42F2FB20C0F60000825CCF
:10098000885840F00100885002B0704782B0019052
:1009900000910199009A42F20B30C0F60000825C8F
:1009A000885840F00100885002B0704782B0019032
:1009B00000910198009A42F20331C0F60001895C6F
:1009C0000844406880B202B07047000010B584B09F
:1009D0000390029101920198C06A08B1FFE7FFE716
:1009E00003980299019B9A68DC68D3F810E0D3F869
:1009F00014C0224342EA0E0242EA0C02D3F818C0A5
:100A000042EA0C02D3F81CC042EA0C029B6A1A4369
:100A1000FFF762FF0198C06AA0B1FFE7039802994F
:100A2000019BDA6A1B6BFFF73BFF03980299019A5F
:100A3000526B00F0A5F803980299019A926B00F0AE
:100A4000C5F8FFE703980299019A526800F078F818
:100A500003980299019A126800F0A8F80398029985
:100A6000019A126A00F038F803980299019A526AC2
:100A700000F01CF8002004B010BD000081B0009010
:100A800000984068C0F3405001B0704782B00190B8
:100A900000910198009A42F20B31C0F60001895C86
:100AA000405800F0010002B07047000083B002908F
:100AB000019100920298019942F2F322C0F60002DD
:100AC000515C405820F06060009908430299019BF6
:100AD000D25C885003B0704783B0029001910092BD
:100AE0000298019942F2F322C0F60002515C0844D8
:100AF00040684FF6FF718843009908430299019BB3
:100B0000D25C1144486003B07047000083B002908B
:100B1000019100920298019942F20B32C0F6000254
:100B2000515C084440684FF6FF71884300990843C0
:100B30000299019BD25C1144486003B070470000E9
:100B400083B002900191009200980299019B42F2B9
:100B5000F322C0F60002D25C1144C86003B07047B3
:100B600083B002900191009200980299019B42F299
:100B70000B32C0F60002D25C1144C86003B070476B
:100B800083B00290019100920298019942F2F322FF
:100B9000C0F60002515C405820F0C0700099084334
:100BA0000299019BD25C885003B0704783B00290D9
:100BB0000191009200980299019B42F2F322C0F643
:100BC0000002D25C1144886003B0704783B0029089
:100BD000019100920298019942F2F322C0F60002BC
:100BE000515C405820F4C000009908430299019BD1
:100BF000D25C885003B0704743F60040C4F2020054
:100C0000006800F00700704781B0009043F6004193
:100C1000C4F20201086820F00700009A104308603F
:100C200001B0704780B588B0039002910020019018
:100C300000900298006890FAA0F00690069820B9FB
:100C4000FFE720208DF81F0005E00698B0FA80F03D
:100C50008DF81F00FFE79DF81F000190FFE7029845
:100C600000680199C84000285DD0FFE7029800683D
:100C7000019A0121914008400090009800284ED030
:100C8000FFE702984068012805D0FFE70298406816
:100C900002280DD1FFE703980099029A926800F0AC
:100CA0004FF903980099029AD26800F0FBF8FFE729
:100CB00003980099029A126900F004F902984068BA
:100CC000022825D1FFE7009890FAA0F0049004983C
:100CD00020B9FFE720208DF8170005E00498B0FA4E
:100CE00080F08DF81700FFE79DF81700072807D858
:100CF000FFE703980099029A526900F017F806E09E
:100D000003980099029A526900F04EF8FFE7FFE756
:100D100003980099029A526800F086F8FFE701985C
:100D2000013001909BE7002008B080BD8AB005909B
:100D3000049103920598006A0290049890FAA0F03A
:100D40000890089820B9FFE720208DF8270005E0DB
:100D50000898B0FA80F08DF82700FFE702989DF818
:100D600027108A000F21914088430090039801903A
:100D7000049890FAA0F00690069820B9FFE720208A
:100D80008DF81F0005E00698B0FA80F08DF81F007E
:100D9000FFE7009801999DF81F20920091400843B9
:100DA000059908620AB070478AB0059004910392D1
:100DB0000598406A02900498000A90FAA0F0089002
:100DC000089820B9FFE720208DF8270005E0089853
:100DD000B0FA80F08DF82700FFE702989DF8271001
:100DE0008A000F2191408843009003980190049855
:100DF000000A90FAA0F00690069820B9FFE720209C
:100E00008DF81F0005E00698B0FA80F08DF81F00FD
:100E1000FFE7009801999DF81F2092009140084338
:100E2000059948620AB070478AB005900491039210
:100E3000059800680290049890FAA0F0089008982D
:100E400020B9FFE720208DF8270005E00898B0FAC8
:100E500080F08DF82700FFE702989DF827104A00E0
:100E6000032191408843009003980190049890FAE0
:100E7000A0F00690069820B9FFE720208DF81F000B
:100E800005E00698B0FA80F08DF81F00FFE70098A3
:100E900001999DF81F205200914008430599086070
:100EA0000AB0704783B002900191009202984068A6
:100EB00001998843009A514308430299486003B05E
:100EC000704700008AB00590049103920598C068AD
:100ED0000290049890FAA0F00890089820B9FFE7D3
:100EE00020208DF8270005E00898B0FA80F08DF8F2
:100EF0002700FFE702989DF827104A000321914040
:100F00008843009003980190049890FAA0F006900E
:100F1000069820B9FFE720208DF81F0005E006980D
:100F2000B0FA80F08DF81F00FFE7009801999DF856
:100F30001F205200914008430599C8600AB07047CD
:100F40008AB00590049103920598806802900498F5
:100F500090FAA0F00890089820B9FFE720208DF8BB
:100F6000270005E00898B0FA80F08DF82700FFE729
:100F700002989DF827104A00032191408843009071
:100F800003980190049890FAA0F00690069820B972
:100F9000FFE720208DF81F0005E00698B0FA80F0EA
:100FA0008DF81F00FFE7009801999DF81F2052005F
:100FB00091400843059988600AB0704780B582B0B7
:100FC000019001984FF47A7100F002F802B080BDF0
:100FD00082B00190009101980099B0FBF1F00138C6
:100FE0004EF21401CEF2000108604EF21801CEF26A
:100FF0000001002008604EF21001CEF20001052031
:10100000086002B07047000047F20400C4F200001C
:101010000068C0F38030704781B0009047F2000153
:10102000C4F20001086820F44040009A10430860B0
:1010300001B0704743F60800C4F20200006800F0F7
:10104000F000704743F60800C4F20200006800F4A4
:10105000E050704743F60800C4F20200006800F454
:101060006040704743F60800C4F20200006800F0D8
:101070000C00704743F60800C4F20200006800F05C
:101080000C00704780B582B0019000F057FC0199C8
:1010900008600198006800F019FC01994860019807
:1010A000406800F027FC019988600198406800F0D2
:1010B00033FC0199C86002B080BD000043F6000116
:1010C000C4F20201086840F00100086070470000A7
:1010D00043F60000C4F202000068C0F3400070470D
:1010E00081B0009043F60001C4F20201086820F0CC
:1010F000F800009A40EAC200086001B070470000A2
:1011000084B0039002910192009343F60401C4F26B
:101110000201086848F20002CFF6BF721040039A3D
:10112000029B1A43019B42EA83121043086008683D
:1011300020F44030009A1043086004B0704700006B
:1011400043F60001C4F20201086840F080700860B4
:101150007047000043F60400C4F20200006800F08B
:101160003F00704743F60400C4F20200006800F438
:101170008000704743F60400C4F202000068C0F328
:101180008810704743F60400C4F20200006800F4BF
:101190004030704743F60000C4F202000068C0F31C
:1011A0004060704781B0009043F60801C4F202012C
:1011B000086820F0F000009A1043086001B0704702
:1011C00081B0009043F60801C4F20201086820F4DF
:1011D000E050009A1043086001B0704781B0009061
:1011E00043F60801C4F20201086820F46040009A46
:1011F0001043086001B0704781B0009043F60801C9
:10120000C4F20201086820F00300009A104308604D
:1012100001B0704781B0009043F68C01C4F2020126
:10122000086820F08070009A1043086001B0704791
:1012300081B00090009840F20001C2F20001086005
:1012400001B0704782B001900091009A0199086A3C
:101250001043086202B0704781B00090009908689E
:1012600040F08000086001B07047000081B000903D
:101270000099086840F00100086001B07047000064
:1012800081B000900099486940F00100486101B0C8
:101290007047000089B0089007910798012803D192
:1012A000FFE70020049030E00798042803D1FFE70F
:1012B0000120039026E00798102803D1FFE70220C1
:1012C00002901CE00798402803D1FFE7032001901B
:1012D00012E00798B0F5807F03D1FFE7042000906B
:1012E00007E007990620B1F5806F08BF0520009040
:1012F000FFE700980190FFE701980290FFE702984E
:101300000390FFE703980490FFE704988DF81B0013
:1013100008989DF81B2042F2DE21C0F60001895C8E
:101320000844183005909DF81B1042F2EC20C0F6DE
:101330000000415C082000FA01F20599086810439A
:10134000086009B07047000082B0019000910098D9
:101350000199486302B0704782B0019000910098F3
:101360000199486302B070478AB0099008910792CA
:101370000898012803D1FFE70020049030E0089886
:10138000042803D1FFE70120039026E008981028E5
:1013900003D1FFE7022002901CE00898402803D107
:1013A000FFE70320019012E00898B0F5807F03D199
:1013B000FFE70420009007E008990620B1F5806F50
:1013C00008BF05200090FFE700980190FFE7019813
:1013D0000290FFE702980390FFE703980490FFE76D
:1013E00004988DF81B0009989DF81B2042F2DE211D
:1013F000C0F60001895C0844183005900598006823
:101400009DF81B2042F2EC21C0F600018A5C73219A
:1014100091408843079991400843059908600AB0B4
:101420007047000089B0089007910692079801283C
:1014300003D1FFE70020049030E00798042803D18F
:10144000FFE70120039026E00798102803D1FFE76B
:10145000022002901CE00798402803D1FFE70320F8
:10146000019012E00798B0F5807F03D1FFE70420D8
:10147000009007E007990620B1F5806F08BF0520AE
:101480000090FFE700980190FFE701980290FFE7C6
:1014900002980390FFE703980490FFE704988DF803
:1014A00017000898006A9DF8172042F2E521C0F65F
:1014B00000018A5C022191408843069991400843CB
:1014C0000899086209B0704782B0019000910098B5
:1014D0000199C86202B0704782B0019000910098F3
:1014E0000199886202B0704782B00190019800684B
:1014F00000900098019840680090009802B07047F2
:1015000081B000900099086920F49040086100992A
:10151000486920F02A00486101B0704782B001900C
:10152000FFE7FFE7019850E8050F20F080000090EA
:10153000FFE70099019A42E805100028F2D1FFE781
:10154000FFE702B07047000081B000900099C868C2
:1015500040F40050C86001B07047000082B00190B4
:10156000FFE7FFE7019850E8050F40F040000090CA
:10157000FFE70099019A42E805100028F2D1FFE741
:10158000FFE702B07047000082B00190FFE7FFE77D
:10159000019850E8050F40F080000090FFE70099A7
:1015A000019A42E805100028F2D1FFE7FFE702B0F8
:1015B0007047000082B00190FFE7FFE7019850E814
:1015C000050F40F080000090FFE70099019A42E883
:1015D00005100028F2D1FFE7FFE702B070470000D6
:1015E00082B00190FFE7FFE7019850E8030F40F059
:1015F00010000090FFE70099019A42E803100028CC
:10160000F2D1FFE7FFE702B07047000080B588B075
:101610000790069101208DF817000020049007988C
:1016200000F066F8002856D1FFE70798C06849F235
:101630000C618843069A5168D2F80CC0136992690C
:1016400041EA0C011943114308430799C860079800
:101650000699896800F0BAF807980699496900F078
:10166000A7F86846FFF70EFD079841F20001C4F2A3
:101670000101884203D1FFE70398049018E007981E
:1016800044F20041C4F20001884203D1FFE702980E
:1016900004900CE0079841F20041C4F20101884235
:1016A00003D1FFE70398049000E0FFE7FFE7FFE7BF
:1016B000049878B1FFE70698006858B1FFE700206A
:1016C0008DF8170007980499069A1368926900F03C
:1016D00017F8FFE7FFE79DF8170008B080BD00008E
:1016E00081B0009000980068C0F3001001B070470E
:1016F00081B000900098C068C0F3403001B07047DE
:1017000080B584B003900291019200930198B0F5E6
:10171000004F26D1FFE702981921A0FB0101009B91
:101720005A00DB0FFEF7BCFD844648F21F52C5F29B
:10173000EB12ACFB021041090801642301FB13C347
:10174000322101EBC301A1FB0221F82202EA51126E
:1017500000EB4200C1F34211084480B20399886053
:1017600024E002981921A0FB0101009B9A009B0F25
:10177000FEF796FD034648F21F51C5F2EB11A3FB9D
:1017800001204209642002FB1033322000EB0310D9
:10179000A0FB0101F02000EA511000EB0210C1F3A0
:1017A0004311084480B203998860FFE704B080BD0C
:1017B00082B0019000910198406920F44070009936
:1017C00008430199486102B07047000082B001905F
:1017D00000910198006920F4405000990843019954
:1017E000086102B070470000FFE7FEE7FFE7FEE791
:1017F00088B0079006910592079800F007000490C2
:101800000498C0F10700052803D3FFE704200190E6
:1018100004E00498C0F107000190FFE701980390ED
:1018200004980430062803D8FFE70020009003E066
:10183000049803380090FFE70098029006980399F7
:10184000012202FA01F101390840029B98400599F2
:101850009A40013A1140084308B0704780B582B001
:101860000220FEF7F1FF40F20040C4F200000190B8
:101870005321FFF731FE019844F61F61FFF724FE64
:101880000198012100916022FFF76EFD019840F65A
:101890009801FFF759FD00990198FFF7FBFC0099AB
:1018A00001980022FFF7BEFD00990198FFF7CAFCDE
:1018B0000198FFF7D1FC0198FFF7D8FC0198FFF7DA
:1018C000DFFC02B080BD00007047000080B582B030
:1018D000019001980090FFF7ADFB01460098C9B256
:1018E0000A0942F2C621C0F60001895CC84002B074
:1018F00080BD000080B582B0019001980090FFF794
:10190000A1FB014600988A0A42F2D621C0F60001E6
:10191000895CC84002B080BD80B582B0019001985A
:101920000090FFF797FB014600984A0B42F2D62140
:10193000C0F60001895CC84002B080BD80B582B0AD
:1019400000200190FFF796FB0146009140B1FFE7B0
:10195000009804280AD0FFE7009808280CD010E06F
:1019600042F20040C0F2F400019010E047F640005F
:10197000C0F27D1001900AE0082000F00BF8019001
:1019800005E042F20040C0F2F4000190FFE7019848
:1019900002B080BD80B588B0079000200690059009
:1019A0000490FFF7DFFB05900598039028B1FFE74F
:1019B0000398B0F5800F06D00BE042F20040C0F271
:1019C000F40006900BE047F64000C0F27D10069050
:1019D00005E042F20040C0F2F4000690FFE70798ED
:1019E00008281BD1FFE706980090FFF7B3FB0146DC
:1019F0000098B0FBF1F00190FFF7BCFB01460198A5
:101A000048430290FFF7BEFB014602980A0C0221F0
:101A100001EB4201B0FBF1F00490FFE7049808B03D
:101A200080BD0000704700007047000080B582B0A4
:101A30000220FFF7E9F8FFE7FFF7DEF8022801D000
:101A4000FFE7F9E74FF40040FFF7E6FA1020FFF751
:101A500047FBFFF733FBFFE7FFF73AFB012801D015
:101A6000FFE7F9E7002010214FF4A8724FF480330C
:101A7000FFF746FBFFF764FBFFE7FFF78BFB01284F
:101A800001D0FFE7F9E7FFE7FFF7BEFA08B9FFE784
:101A9000FAE700200190FFF785FB4FF48050FFF735
:101AA0008FFB0198FFF79AFB0220FFF7A5FBFFE7EA
:101AB000FFF7D8FA082801D0FFE7F9E74BF6005006
:101AC000C0F201500090FFF779FA0098FFF7B0FBE1
:101AD0000020FFF79FFB02B080BD00004EF688514A
:101AE000CEF20001086840F4700008607047000002
:101AF00080B584B044F20040C4F20000FFF7F0FD6E
:101B000000287DD0FFE700208DF80F0044F2004050
:101B1000C4F20000FFF7E8FC46F20000C4F2020045
:101B20000521FEF743FFC0F58070ADF80C0040F2D0
:101B30006A10C2F200000088BDF80C1088421CDA5E
:101B4000FFE70020ADF80A00BDF80C1040F26A1063
:101B5000C2F200000288891AADF80A10018840F22A
:101B60006C10C2F200000844BDF80A109DF80F2066
:101B700002F0010200F07CF83AE040F26A10C2F292
:101B800000000088BDF80C10884230DBFFE7002021
:101B90000090ADF8080040F26A10C2F2000001881F
:101BA000C1F58071ADF8081001218DF80F10018882
:101BB00040F26C10C2F2000001900844BDF8081019
:101BC0009DF80F2002F0010200F052F800990198F0
:101BD0008DF80F10BDF80C10ADF80810BDF8081006
:101BE0009DF80F2002F0010200F042F8FFE7FFE746
:101BF000BDF80C0040F26A11C2F200010880FFE754
:101C000004B080BD80B58AB04FF40030FEF71CFEF2
:101C1000002009900890079006900590049003908A
:101C20004FF4165103910490089009900690059086
:101C30000C20079044F20040C4F20000029003A977
:101C4000FFF7E4FC0298FFF75BFC0298FFF7C8FC83
:101C500026200190012100F0EFF8019800F0AAF889
:101C60000298FFF771FC0AB080BD00000000000080
:101C700080B5A8B02790ADF89A108DF89920002073
:101C800025908DF8930023902798BDF89A109DF821
:101C9000992002F00102FEF701FD9DF89900C007AE
:101CA000002840F07C80FFE740F26810C2F200009C
:101CB000017840F26800C2F2000025AA00F026F97F
:101CC0008DF893009DF893000146049103285ED897
:101CD0000499DFE801F00233414E2598002803D231
:101CE000FFE70020259007E02598B52803D3FFE7FC
:101CF000B4202590FFE7FFE74FF416702390259856
:101D000000F0C3F941EC100B9FED271B53EC112B96
:101D100051EC100B00F0CCF941EC100B51EC100B16
:101D200000F086F90146239808442390239940F255
:101D30000040C4F20000FFF70FFB29E042F235310A
:101D4000C0F600010DF16E0003901E22FEF73FFB6E
:101D5000039800F037F91BE042F21331C0F600019E
:101D600013A802902222FEF732FB029800F02AF913
:101D70000EE042F25331C0F600010DF11600019061
:101D80003622FEF724FB019800F01CF900E0FFE783
:101D900040F26811C2F2000100200870FFE728B08D
:101DA00080BD00BF00BF00BF48E17A14AEC721402C
:101DB000FFE7FEE781B08DF803009DF903000028DE
:101DC0000ED4FFE79DF9031001F01F02012090409F
:101DD0004A094EF20011CEF2000141F82200FFE75D
:101DE00001B070474EF60C50CEF200000068C0F310
:101DF0000220704782B08DF8070000919DF907001E
:101E000000280AD4FFE7009800019DF907104EF260
:101E10000042CEF2000288540BE0009800019DF8C9
:101E2000071001F00F014EF61452CEF20002885452
:101E3000FFE702B07047000082B08DF80700009104
:101E40009DF9070000280AD4FFE7009800019DF9DA
:101E500007104EF20042CEF2000288540BE00098C8
:101E600000019DF8071001F00F014EF61452CEF25A
:101E700000028854FFE702B07047000083B0029070
:101E8000029800F0070000904EF60C51CEF20001CF
:101E90000868019001984FF6FF02104001900198E8
:101EA000009A40EA02200022C0F2FA521043019048
:101EB0000198086003B0704780B582B000200090A0
:101EC00001904FF48040FEF7D1FC4FF08050FEF7B8
:101ED000A9FC0320FFF7D2FFFFF784FF009A0F2130
:101EE000FFF786FC01464FF0FF30FFF783FFFFF757
:101EF0009DFDFEF721FCFFF7B1FCFEF73DFCFFF76F
:101F000081FEFEF75FFBFFE7FEE7000087B005906C
:101F1000ADF81210039200200290059820B1FFE75F
:101F2000BDF8120020B9FFE701208DF81B0044E046
:101F300000200190FFE70198BDF81210884235D2C9
:101F4000FFE705980199405C302806DBFFE705981C
:101F50000199405C3A2804DBFFE702208DF81B0062
:101F60002BE005980199405C30388DF80300029809
:101F70009DF80310C9434CF6CD42CCF6CC42A1FBF0
:101F80000221B0EBD10F04D9FFE703208DF81B002D
:101F900013E0029800EB80019DF8030000EB410084
:101FA0000290FFE7019801300190C4E7029803997D
:101FB000086000208DF81B00FFE79DF81B0007B0AC
:101FC0007047000080B584B003900398FEF7E0F9F5
:101FD000ADF80A0046F20000C4F202000621FEF746
:101FE000A5FCFFE746F20000C4F202000621FEF75E
:101FF0004DFD08B1FFE7F5E7039A46F20000C4F291
:102000000200009006210191FEF7AAFD00980199B7
:10201000BDF80A20FEF77AFD00980199FEF7B6FC9C
:1020200044F20040C4F20000FFF7C4FA04B080BDDF
:102030004FEA1153A3F58063D3F11E03A8BFD3F178
:10204000200C08DB4FF0004242EAC12252EA505213
:1020500032FA03F0704709420BD4102BC4BF0020A2
:10206000704703F5787CBCF1FF3F05D04FF0FF309F
:1020700070474FF00000704770B500F0C3F800BF24
:102080004992248000207047F0E7B0FA80F310FAFC
:1020900003F10AD0C3F11D0303F580634FEA035235
:1020A0004FEA415002EBD12170474FF000007047DA
:1020B00070B5DFF848C11CEA111E1EBF1CEA1315DB
:1020C0009EEA0C0F95EA0C0F00F06F8081EA030482
:1020D0004EEAD47EAE4421EA4C1123EA4C1341F47B
:1020E000801143F48013AEF17F7EA1FB024CA0FB74
:1020F0000365361955EB0C05A1FB034C4CF10003AD
:10210000A0FB021C16EB0C06654153F100030942CB
:1021100018BF46F0010613F4007F0BD14FEA0331DC
:102120004FEA053041EA155140EA165034036FF08A
:1021300003020AE04FEAC3214FEAC52041EA5551A4
:1021400040EA5650F4026FF0020202EB2E4201EB1D
:10215000025585EACE710AD05FEA440C18BF24F01C
:10216000004450F1000041F1000120EAD47040F237
:10217000FE7C624500D270BDA84214BF4FF080447F
:102180004FF04044002E08BF0024BEF1806FA8BF6E
:10219000A1F1C041BDE8704080F2828001F1C041F0
:1021A00001F000414FF0000070470CEA13159EEA61
:1021B0000C0F18BF95EA0C0F06D081EA030E4FF002
:1021C00000000EF0004170BD00F01CF88900013ED7
:1021D00000F007B800F009B84FEA430C5FEA5C5C16
:1021E00008D081EA030100F05BB84FEA410C5FEAD6
:1021F0005C5CF6D102494FF0000070470000FF0719
:102200000000F87F0EF1020E2EF0030E5EF8046B54
:10221000364205D4012A43EB030515F5001F12D8F9
:10222000012841EB010C1CF5001F0CD80ED14FEA20
:10223000D17C0CEB4C0C0CF1020C15F5001F08BF07
:102240004CEBD37C04E04FF0080C01E04FEAD37C68
:102250000CEB4C0526FA05F606F00706B6F1040C61
:1022600006D20EEB860CBDE870404CF0010C6047C6
:10227000DFE80CF0090B02024FF00041A1F500214C
:102280004FF0000070BD19461046012851EB0104C3
:1022900018BFD4F5001484BF002001F0004170BDC8
:1022A0000808A0F500114FEA31017047F1EE100A5D
:1022B0004FF6FF71C0F2C03120EA010040F04070DB
:1022C000E1EE100A7047000000000000000001026B
:1022D00003040607080900000000010203040000CF
:1022E000000004040400020406080A0C00000800B0
:1022F000000008102840587088A0B8102840587076
:1023000088A0B8102840587088A0B810284058708D
:1023100088A0B84572726F723A2041636365707429
:102320006564206E6F742064696769742076616CDF
:1023300075650D0A004572726F723A2041636365DC
:102340007074656420656D7074792076616C756554
:102350000D0A004572726F723A20416363657074B2
:102360006564206E756D62657220776869636820A8
:1023700076616C7565206578636565647320756941
:102380006E7433325F740D0A00000000B023000841
:102390000000002008000000F8010008B823000831
:1023A0000800002068080000180200080000000073
:0823B0000024F400000000000D
:040000050800019559
:00000001FF
