:020000040800F2
:10000000700800206102000805150008810600083C
:100010000115000859040008311A0008000000000A
:100020000000000000000000000000003D17000874
:10003000B905000800000000E1150008411700089C
:100040007B0200087B0200087B0200087B0200089C
:100050007B0200087B0200087B0200087B0200088C
:100060007B0200087B0200087B0200087B0200087C
:100070007B0200087B0200087B0200087B0200086C
:100080007B0200087B0200087B02000800000000E1
:100090000000000000000000000000007B020008DB
:1000A0007B0200087B0200087B0200087B0200083C
:1000B0007B0200087B0200087B0200087B0200082C
:1000C0007B0200087B0200087B0200087B0200081C
:1000D0007B0200087B0200080918000800000000ED
:1000E0007B0200087B0200087B0200080000000081
:1000F0000000000000000000000000007B0200087B
:10010000000000007B0200087B0200087B02000860
:1001100000000000000000000000000000000000DF
:100120007B0200087B0200087B0200087B020008BB
:100130007B0200080000000000000000000000003A
:100140000000000000000000000000007B0200082A
:100150007B0200087B0200087B0200087B0200088B
:100160007B0200087B020008000000000000000085
:10017000000000000000000000000000000000007F
:10018000000000007B0200080000000000000000EA
:100190007B02000800F002F800F052F814A696E87E
:1001A000000CB244B344DA4501D100F049F8BAE892
:1001B0000F000FA696E83000A5EB040504EB060738
:1001C000AAEB0704A7F101074FEA15154FEA34140B
:1001D000A4F10104AC4201D300F032F813F0010F96
:1001E00018BFFB1A43F0010300F001F8DBE71847E2
:1001F000301D0000501D0000103A24BF78C878C19F
:10020000FAD8520724BF30C830C144BF04680C601C
:1002100070470000704700000023002400250026DE
:10022000103A28BF78C1FBD8520728BF30C148BF59
:100230000B6070471FB501F043FE1FBD10B510BD28
:1002400000F0D0F81146FFF7F5FF01F075FC00F063
:10025000EEF803B4FFF7F2FF03BC00F0F5F800007E
:100260000948804709480047FEE7FEE7FEE7FEE74A
:10027000FEE7FEE7FEE7FEE7FEE7FEE70448054986
:10028000054A064B70470000F51700089501000865
:10029000700200207008002070040020700400200C
:1002A00053EA020C00F069802DE9F04B4FF0000694
:1002B000002B1FBFB3FA83F503FA05F424FA05F601
:1002C0005E4012BF1643B2FA82F502FA05F4C5F198
:1002D00020051EBF22FA05FC44EA0C04203556EA2C
:1002E000044C4FEA144418BF641C4FF000084FF050
:1002F0000009904271EB030C39D3002919BFB1FA00
:1003000081F701FA07F6B0FA80F700FA07F6C7F1AD
:1003100020071EBF20FA07FC46EA0C062037B6FB72
:10032000F4FCA7EB0507103F07F01F0BCBF12006ED
:100330002CFA06F60CFA0BFB44BFB3460026202F1E
:10034000A4BF5E464FF0000B5BEA060C08BF4FF0FF
:10035000010B19EB0B0948EB0608ABFB027C06FB13
:1003600002CC0BFB03CCC01B71EB0C01C1E70B46AD
:10037000024641464846BDE8F08B13B5084318BF16
:100380004FF0FF300146AFF30080BDE81C407047DE
:100390004FF0000200B5134694469646203922BF1E
:1003A000A0E80C50A0E80C50B1F12001BFF4F7AF69
:1003B000090728BFA0E80C5048BF0CC05DF804EB4B
:1003C000890028BF40F8042B08BF704748BF20F8B9
:1003D000022B11F0804F18BF00F8012B70477047B7
:1003E00070477047754600F02BF8AE460500694629
:1003F000534620F00700854618B020B5FFF73EFFB2
:10040000BDE820404FF000064FF000074FF0000815
:100410004FF0000BAC46ACE8C009ACE8C009ACE852
:10042000C009ACE8C00921F007018D46704710B53E
:100430000446AFF300802046BDE81040FFF709BF37
:10044000004870470800002001491820ABBEFEE7B5
:100450002600020070470000FFE7FEE780B598B075
:100460004FF4001000F00EF909A805903C2101910D
:10047000FFF78EFF059A4FF0006002901290402027
:100480000B900020049010900E900C9044F20441C8
:10049000C4F20001039109910F900D90139046F260
:1004A0000000C4F202000790062100F089F90199CA
:1004B0000598FFF76DFFDDF808C0039B0499059AC6
:1004C0000798CDF848C00B9140F26C1CC2F2000CAA
:1004D000CDF828C010914FF4806CCDF838C04FF49F
:1004E000807CCDF830C0CDF844C009930F910D91B8
:1004F0004FF4003113910521069100F061F906993E
:10050000079800F03DF944F20040C4F20000089062
:1005100000F0C6FE089800F0D9FE18B080BD0000BB
:1005200083B00290ADF806108DF805200020ADF8DC
:100530000200FFE7BDF80200BDF80610884227DA86
:10054000FFE70298BDF80210405C8DF801009DF8AD
:1005500001000D2805D0FFE79DF801000A2801D110
:10056000FFE715E09DF8010040F26811C2F20001BA
:100570000B7840F26802C2F20002D05408780130D1
:100580000870FFE7BDF802000130ADF80200D1E7C6
:100590009DF80500C00760B9FFE740F26810C2F29D
:1005A0000000027840F26801C2F200010020885485
:1005B000FFE703B0704700007047000080B588B0C7
:1005C0000220019000F05EF801990020079006904B
:1005D00005900490039002900791039105901021DB
:1005E000029106900120049040F20040C4F2020003
:1005F00002A900F0CFF908B080BD000010B58CB0A2
:100600000120019000F03EF8002104910B910A9125
:100610000991089107910691072000900B90022004
:10062000029007900991042206920A9108900020F6
:10063000C4F20200059006A9039100F0ABF9DDF8C1
:1006400000C0019B029A0399DDF810E00598CDF8EF
:100650002CE0CDF828E0CDF824E0CDF820E0CDF86E
:100660001CE0CDF818E0CDF82CC007924FF0080C34
:10067000CDF818C00A93089200F08CF90CB010BDA8
:10068000FFE7FEE782B00190019A43F63000C4F222
:100690000200016811430160006801990840009060
:1006A000009802B07047000082B00190019A43F6B2
:1006B0004000C4F202000168114301600068019922
:1006C00008400090009802B07047000082B001908E
:1006D000019A43F64000C4F2020001681143016030
:1006E0000068019908400090009802B0704700002F
:1006F00082B00190019A43F64400C4F202000168FE
:10070000114301600068019908400090009802B010
:100710007047000084B00390029101920093039807
:10072000029941F60772C0F60002515C0844406924
:1007300020F007000199009B194308430399029B8D
:10074000D25C1144486104B07047000083B002904D
:10075000019100920298019941F60772C0F60002D9
:10076000515C405848F21F01CFF6FC7108400099D7
:1007700008430299019BD25C885003B07047000087
:1007800082B0019000910199009A41F60F70C0F675
:100790000000825C885840F00100885002B0704729
:1007A00082B0019000910198009A41F61771C0F64D
:1007B0000001895C0844406880B202B070470000C4
:1007C00010B584B00390029101920198C06A08B1FB
:1007D000FFE7FFE703980299019B9A68DC68D3F86A
:1007E00010E0D3F814C0224342EA0E0242EA0C029F
:1007F000D3F818C042EA0C02D3F81CC042EA0C023B
:100800009B6A1A43FFF7A2FF0198C06AA0B1FFE7F5
:1008100003980299019BDA6A1B6BFFF77BFF039831
:100820000299019A526B00F063F803980299019AB9
:10083000926B00F083F8FFE703980299019A5268DF
:1008400000F046F803980299019A126800F066F8E1
:1008500003980299019A126A00F020F8039802990D
:10086000019A526A00F004F8002004B010BD0000A4
:1008700083B00290019100920298019941F60772AB
:10088000C0F60002515C405820F0606000990843B7
:100890000299019BD25C885003B0704783B00290EC
:1008A000019100920298019941F60772C0F6000288
:1008B000515C084440684FF6FF7188430099084333
:1008C0000299019BD25C1144486003B0704700005C
:1008D00083B002900191009200980299019B41F629
:1008E0000772C0F60002D25C1144C86003B07047C2
:1008F00083B00290019100920298019941F607722B
:10090000C0F60002515C405820F0C07000990843C6
:100910000299019BD25C885003B0704783B002906B
:100920000191009200980299019B41F60772C0F66E
:100930000002D25C1144886003B0704783B002901B
:10094000019100920298019941F60772C0F60002E7
:10095000515C405820F4C000009908430299019B63
:10096000D25C885003B0704743F60040C4F20200E6
:10097000006800F00700704781B0009043F6004126
:10098000C4F20201086820F00700009A10430860D2
:1009900001B0704780B588B00390029100200190AB
:1009A00000900298006890FAA0F00690069820B98E
:1009B000FFE720208DF81F0005E00698B0FA80F0D0
:1009C0008DF81F00FFE79DF81F000190FFE70298D8
:1009D00000680199C84000285DD0FFE702980068D0
:1009E000019A0121914008400090009800284ED0C3
:1009F000FFE702984068012805D0FFE702984068A9
:100A000002280DD1FFE703980099029A926800F03E
:100A10004FF903980099029AD26800F0FBF8FFE7BB
:100A200003980099029A126900F004F9029840684C
:100A3000022825D1FFE7009890FAA0F004900498CE
:100A400020B9FFE720208DF8170005E00498B0FAE0
:100A500080F08DF81700FFE79DF81700072807D8EA
:100A6000FFE703980099029A526900F017F806E030
:100A700003980099029A526900F04EF8FFE7FFE7E9
:100A800003980099029A526800F086F8FFE70198EF
:100A9000013001909BE7002008B080BD8AB005902E
:100AA000049103920598006A0290049890FAA0F0CD
:100AB0000890089820B9FFE720208DF8270005E06E
:100AC0000898B0FA80F08DF82700FFE702989DF8AB
:100AD00027108A000F2191408843009003980190CD
:100AE000049890FAA0F00690069820B9FFE720201D
:100AF0008DF81F0005E00698B0FA80F08DF81F0011
:100B0000FFE7009801999DF81F209200914008434B
:100B1000059908620AB070478AB005900491039263
:100B20000598406A02900498000A90FAA0F0089094
:100B3000089820B9FFE720208DF8270005E00898E5
:100B4000B0FA80F08DF82700FFE702989DF8271093
:100B50008A000F21914088430090039801900498E7
:100B6000000A90FAA0F00690069820B9FFE720202E
:100B70008DF81F0005E00698B0FA80F08DF81F0090
:100B8000FFE7009801999DF81F20920091400843CB
:100B9000059948620AB070478AB0059004910392A3
:100BA000059800680290049890FAA0F008900898C0
:100BB00020B9FFE720208DF8270005E00898B0FA5B
:100BC00080F08DF82700FFE702989DF827104A0073
:100BD000032191408843009003980190049890FA73
:100BE000A0F00690069820B9FFE720208DF81F009E
:100BF00005E00698B0FA80F08DF81F00FFE7009836
:100C000001999DF81F205200914008430599086002
:100C10000AB0704783B00290019100920298406838
:100C200001998843009A514308430299486003B0F0
:100C3000704700008AB00590049103920598C0683F
:100C40000290049890FAA0F00890089820B9FFE765
:100C500020208DF8270005E00898B0FA80F08DF884
:100C60002700FFE702989DF827104A0003219140D2
:100C70008843009003980190049890FAA0F00690A1
:100C8000069820B9FFE720208DF81F0005E00698A0
:100C9000B0FA80F08DF81F00FFE7009801999DF8E9
:100CA0001F205200914008430599C8600AB0704760
:100CB0008AB0059004910392059880680290049888
:100CC00090FAA0F00890089820B9FFE720208DF84E
:100CD000270005E00898B0FA80F08DF82700FFE7BC
:100CE00002989DF827104A00032191408843009004
:100CF00003980190049890FAA0F00690069820B905
:100D0000FFE720208DF81F0005E00698B0FA80F07C
:100D10008DF81F00FFE7009801999DF81F205200F1
:100D200091400843059988600AB0704780B582B049
:100D3000019001984FF47A7100F002F802B080BD82
:100D400082B00190009101980099B0FBF1F0013858
:100D50004EF21401CEF2000108604EF21801CEF2FC
:100D60000001002008604EF21001CEF200010520C3
:100D7000086002B07047000047F20400C4F20000AF
:100D80000068C0F38030704781B0009047F20001E6
:100D9000C4F20001086820F44040009A1043086043
:100DA00001B0704743F60800C4F20200006800F08A
:100DB000F000704743F60800C4F20200006800F437
:100DC000E050704743F60800C4F20200006800F4E7
:100DD0006040704743F60800C4F20200006800F06B
:100DE0000C00704743F60800C4F20200006800F0EF
:100DF0000C00704780B582B0019000F02BFC019987
:100E000008600198006800F0EDFB019948600198C6
:100E1000406800F0FBFB019988600198406800F091
:100E200007FC0199C86002B080BD000043F60001D4
:100E3000C4F20201086840F0010008607047000039
:100E400043F60000C4F202000068C0F3400070479F
:100E500081B0009043F60001C4F20201086820F05E
:100E6000F800009A40EAC200086001B07047000034
:100E700084B0039002910192009343F60401C4F2FE
:100E80000201086848F20002CFF6BF721040039AD0
:100E9000029B1A43019B42EA8312104308600868D0
:100EA00020F44030009A1043086004B070470000FE
:100EB00043F60001C4F20201086840F08070086047
:100EC0007047000043F60400C4F20200006800F01E
:100ED0003F00704743F60400C4F20200006800F4CB
:100EE0008000704743F60400C4F202000068C0F3BB
:100EF0008810704743F60400C4F20200006800F452
:100F00004030704743F60000C4F202000068C0F3AE
:100F10004060704781B0009043F60801C4F20201BE
:100F2000086820F0F000009A1043086001B0704794
:100F300081B0009043F60801C4F20201086820F471
:100F4000E050009A1043086001B0704781B00090F3
:100F500043F60801C4F20201086820F46040009AD8
:100F60001043086001B0704781B0009043F608015B
:100F7000C4F20201086820F00300009A10430860E0
:100F800001B0704781B0009043F68C01C4F20201B9
:100F9000086820F08070009A1043086001B0704724
:100FA00081B00090009840F20001C2F20001086098
:100FB00001B0704782B001900091009A0199086ACF
:100FC0001043086202B0704781B000900099086831
:100FD00040F08000086001B07047000081B00090D0
:100FE0000099086840F00100086001B070470000F7
:100FF00081B000900099486940F00100486101B05B
:101000007047000089B0089007910798012803D124
:10101000FFE70020049030E00798042803D1FFE7A1
:101020000120039026E00798102803D1FFE7022053
:1010300002901CE00798402803D1FFE703200190AD
:1010400012E00798B0F5807F03D1FFE704200090FD
:1010500007E007990620B1F5806F08BF05200090D2
:10106000FFE700980190FFE701980290FFE70298E0
:101070000390FFE703980490FFE704988DF81B00A6
:1010800008989DF81B2041F6F261C0F60001895CCA
:101090000844183005909DF81B1041F60070C0F60A
:1010A0000000415C082000FA01F20599086810432D
:1010B000086009B07047000082B00190009100986C
:1010C0000199486302B0704782B001900091009886
:1010D0000199486302B070478AB00990089107925D
:1010E0000898012803D1FFE70020049030E0089819
:1010F000042803D1FFE70120039026E00898102878
:1011000003D1FFE7022002901CE00898402803D199
:10111000FFE70320019012E00898B0F5807F03D12B
:10112000FFE70420009007E008990620B1F5806FE2
:1011300008BF05200090FFE700980190FFE70198A5
:101140000290FFE702980390FFE703980490FFE7FF
:1011500004988DF81B0009989DF81B2041F6F26158
:10116000C0F60001895C08441830059005980068B5
:101170009DF81B2041F60071C0F600018A5C7321C6
:1011800091408843079991400843059908600AB047
:101190007047000089B008900791069207980128CF
:1011A00003D1FFE70020049030E00798042803D122
:1011B000FFE70120039026E00798102803D1FFE7FE
:1011C000022002901CE00798402803D1FFE703208B
:1011D000019012E00798B0F5807F03D1FFE704206B
:1011E000009007E007990620B1F5806F08BF052041
:1011F0000090FFE700980190FFE701980290FFE759
:1012000002980390FFE703980490FFE704988DF895
:1012100017000898006A9DF8172041F6F961C0F69A
:1012200000018A5C0221914088430699914008435D
:101230000899086209B0704782B001900091009847
:101240000199C86202B0704782B001900091009885
:101250000199886202B0704782B0019001980068DD
:1012600000900098019840680090009802B0704784
:1012700081B000900099086920F4904008610099BD
:10128000486920F02A00486101B0704781B00090A1
:101290000099C86840F40050C86001B07047000071
:1012A00082B00190FFE7FFE7019850E8050F40F09A
:1012B00040000090FFE70099019A42E805100028DD
:1012C000F2D1FFE7FFE702B07047000082B0019063
:1012D000FFE7FFE7019850E8050F40F0800000901D
:1012E000FFE70099019A42E805100028F2D1FFE7D4
:1012F000FFE702B07047000082B00190FFE7FFE710
:10130000019850E8030F40F010000090FFE70099AB
:10131000019A42E803100028F2D1FFE7FFE702B08C
:101320007047000080B588B00790069101208DF8C5
:10133000170000200490079800F066F8002856D1A6
:10134000FFE70798C06849F20C618843069A516824
:10135000D2F80CC01369926941EA0C011943114398
:1013600008430799C86007980699896800F0BAF899
:1013700007980699496900F0A7F86846FFF73AFD13
:10138000079841F20001C4F20101884203D1FFE74E
:101390000398049018E0079844F20041C4F2000159
:1013A000884203D1FFE7029804900CE0079841F2CD
:1013B0000041C4F20101884203D1FFE70398049081
:1013C00000E0FFE7FFE7FFE7049878B1FFE7069842
:1013D000006858B1FFE700208DF8170007980499BE
:1013E000069A1368926900F017F8FFE7FFE79DF887
:1013F000170008B080BD000081B000900098006820
:10140000C0F3001001B0704781B000900098C06830
:10141000C0F3403001B0704780B584B003900291B2
:10142000019200930198B0F5004F26D1FFE7029892
:101430001921A0FB0101009B5A00DB0FFEF730FFD2
:10144000844648F21F52C5F2EB12ACFB0210410970
:101450000801642301FB13C3322101EBC301A1FB8B
:101460000221F82202EA511200EB4200C1F34211BC
:10147000084480B20399886024E002981921A0FBF7
:101480000101009B9A009B0FFEF70AFF034648F2FA
:101490001F51C5F2EB11A3FB01204209642002FB9E
:1014A0001033322000EB0310A0FB0101F02000EA12
:1014B000511000EB0210C1F34311084480B20399AC
:1014C0008860FFE704B080BD82B001900091019870
:1014D000406920F44070009908430199486102B0C6
:1014E0007047000082B0019000910198006920F4DB
:1014F0004050009908430199086102B0704700000C
:10150000FFE7FEE7FFE7FEE788B007900691059248
:10151000079800F0070004900498C0F10700052820
:1015200003D3FFE70420019004E00498C0F1070012
:101530000190FFE70198039004980430062803D82F
:10154000FFE70020009003E0049803380090FFE7D5
:101550000098029006980399012202FA01F10139DC
:101560000840029B984005999A40013A114008436F
:1015700008B0704780B582B00220FFF7A7F840F2AC
:101580000040C4F2000001905321FFF75DFE019876
:1015900044F61F61FFF750FE01980121009160227F
:1015A000FFF79AFD019840F69801FFF785FD009935
:1015B0000198FFF727FD009901980022FFF7EAFD47
:1015C00000990198FFF7F6FC0198FFF7FDFC0198E0
:1015D000FFF704FD0198FFF70BFD02B080BD00008E
:1015E0007047000080B582B0019001980090FFF72D
:1015F000D9FB01460098C9B20A0941F6DA61C0F682
:101600000001895CC84002B080BD000080B582B096
:10161000019001980090FFF7CDFB014600988A0ADF
:1016200041F6EA61C0F60001895CC84002B080BDA5
:1016300080B582B0019001980090FFF7C3FB01468E
:1016400000984A0B41F6EA61C0F60001895CC84087
:1016500002B080BD80B582B000200190FFF7C2FBD0
:101660000146009140B1FFE7009804280AD0FFE747
:10167000009808280CD010E042F20040C0F2F400BC
:10168000019010E047F64000C0F27D1001900AE0A2
:10169000082000F00BF8019005E042F20040C0F293
:1016A000F4000190FFE7019802B080BD80B588B0DA
:1016B00007900020069005900490FFF70BFC059022
:1016C0000598039028B1FFE70398B0F5800F06D086
:1016D0000BE042F20040C0F2F40006900BE047F647
:1016E0004000C0F27D10069005E042F20040C0F2DA
:1016F000F4000690FFE7079808281BD1FFE706983B
:101700000090FFF7DFFB01460098B0FBF1F001907D
:10171000FFF7E8FB0146019848430290FFF7EAFB18
:10172000014602980A0C022101EB4201B0FBF1F0E4
:101730000490FFE7049808B080BD000070470000E7
:101740007047000080B582B00220FFF715F9FFE76F
:10175000FFF70AF9022801D0FFE7F9E74FF400404C
:10176000FFF712FB1020FFF773FBFFF75FFBFFE7AC
:10177000FFF766FB012801D0FFE7F9E70020102101
:101780004FF4A8724FF48033FFF772FBFFF790FB22
:10179000FFE7FFF7B7FB012801D0FFE7F9E7FFE715
:1017A000FFF7EAFA08B9FFE7FAE700200190FFF730
:1017B000B1FB4FF48050FFF7BBFB0198FFF7C6FB6E
:1017C0000220FFF7D1FBFFE7FFF704FB082801D059
:1017D000FFE7F9E74BF60050C0F201500090FFF729
:1017E000A5FA0098FFF7DCFB0020FFF7CBFB02B067
:1017F00080BD00004EF68851CEF20001086840F42A
:10180000700008607047000080B584B044F200406A
:10181000C4F20000FFF7F0FD00287DD0FFE70020B4
:101820008DF80F0044F20040C4F20000FFF714FDF1
:1018300046F20000C4F202000521FEF7B1FFC0F538
:101840008070ADF80C0040F26A10C2F2000000880F
:10185000BDF80C1088421CDAFFE70020ADF80A0042
:10186000BDF80C1040F26A10C2F200000288891A1A
:10187000ADF80A10018840F26C10C2F20000084472
:10188000BDF80A109DF80F2002F0010200F07CF86C
:101890003AE040F26A10C2F200000088BDF80C1075
:1018A000884230DBFFE700200090ADF8080040F2EE
:1018B0006A10C2F200000188C1F58071ADF808100D
:1018C00001218DF80F10018840F26C10C2F2000067
:1018D00001900844BDF808109DF80F2002F00102A5
:1018E00000F052F8009901988DF80F10BDF80C1017
:1018F000ADF80810BDF808109DF80F2002F00102A5
:1019000000F042F8FFE7FFE7BDF80C0040F26A1173
:10191000C2F200010880FFE704B080BD80B58AB044
:101920004FF40030FEF7D2FE002009900890079097
:1019300006900590049003904FF416510391049083
:1019400008900990069005900C20079044F2004002
:10195000C4F20000029003A9FFF7E4FC0298FFF72D
:1019600087FC0298FFF7C8FC26200190012100F0B7
:10197000A3F8019800F05EF80298FFF787FC0AB020
:1019800080BD00000000000080B586B00590ADF875
:1019900012108DF81120002003908DF80B0005988F
:1019A000BDF812109DF8112002F00102FEF7B8FDFB
:1019B0009DF81100C007A0BBFFE740F26810C2F21B
:1019C00000000090017840F26800C2F2000003AA13
:1019D00000F0DCF88DF80B004FF4167001900398BE
:1019E00000F05DF941EC100B9FED0F1B53EC112B38
:1019F00051EC100B00F066F941EC100B51EC100BA0
:101A000000F020F90146019808440190019940F244
:101A10000040C4F20000FFF757FB00990020087057
:101A2000FFE706B080BD00BF48E17A14AEC7214091
:101A3000FFE7FEE781B08DF803009DF90300002861
:101A40000ED4FFE79DF9031001F01F020120904022
:101A50004A094EF20011CEF2000141F82200FFE7E0
:101A600001B070474EF60C50CEF200000068C0F393
:101A70000220704782B08DF8070000919DF90700A1
:101A800000280AD4FFE7009800019DF907104EF2E4
:101A90000042CEF2000288540BE0009800019DF84D
:101AA000071001F00F014EF61452CEF200028854D6
:101AB000FFE702B07047000082B08DF80700009188
:101AC0009DF9070000280AD4FFE7009800019DF95E
:101AD00007104EF20042CEF2000288540BE000984C
:101AE00000019DF8071001F00F014EF61452CEF2DE
:101AF00000028854FFE702B07047000083B00290F4
:101B0000029800F0070000904EF60C51CEF2000152
:101B10000868019001984FF6FF021040019001986B
:101B2000009A40EA02200022C0F2FA5210430190CB
:101B30000198086003B0704780B582B00020009023
:101B400001904FF48040FEF7D3FD4FF08050FEF738
:101B5000ABFD0320FFF7D2FFFFF784FF009A0F21B0
:101B6000FFF7D2FC01464FF0FF30FFF783FFFFF78E
:101B7000E9FDFEF723FDFFF7FDFCFEF73FFDFFF754
:101B8000CDFEFEF76BFCFFE7FEE7000087B0059097
:101B9000ADF81210039200200290059820B1FFE7E3
:101BA000BDF8120020B9FFE701208DF81B0044E0CA
:101BB00000200190FFE70198BDF81210884235D24D
:101BC000FFE705980199405C302806DBFFE70598A0
:101BD0000199405C3A2804DBFFE702208DF81B00E6
:101BE0002BE005980199405C30388DF8030002988D
:101BF0009DF80310C9434CF6CD42CCF6CC42A1FB74
:101C00000221B0EBD10F04D9FFE703208DF81B00B0
:101C100013E0029800EB80019DF8030000EB410007
:101C20000290FFE7019801300190C4E70298039900
:101C3000086000208DF81B00FFE79DF81B0007B02F
:101C4000704700004FEA1153A3F58063D3F11E03E0
:101C5000A8BFD3F1200C08DB4FF0004242EAC122BA
:101C600052EA505232FA03F0704709420BD4102B5B
:101C7000C4BF0020704703F5787CBCF1FF3F05D05E
:101C80004FF0FF3070474FF00000704770B500F024
:101C9000C3F800BF4992248000207047F0E7B0FAF3
:101CA00080F310FA03F10AD0C3F11D0303F580633A
:101CB0004FEA03524FEA415002EBD12170474FF0F7
:101CC0000000704770B5DFF848C11CEA111E1EBF46
:101CD0001CEA13159EEA0C0F95EA0C0F00F06F80BA
:101CE00081EA03044EEAD47EAE4421EA4C1123EA91
:101CF0004C1341F4801143F48013AEF17F7EA1FBBD
:101D0000024CA0FB0365361955EB0C05A1FB034CF7
:101D10004CF10003A0FB021C16EB0C06654153F1CD
:101D20000003094218BF46F0010613F4007F0BD1EF
:101D30004FEA03314FEA053041EA155140EA1650A7
:101D400034036FF003020AE04FEAC3214FEAC520D3
:101D500041EA555140EA5650F4026FF0020202EB9C
:101D60002E4201EB025585EACE710AD05FEA440C9F
:101D700018BF24F0004450F1000041F1000120EAB6
:101D8000D47040F2FE7C624500D270BDA84214BF00
:101D90004FF080444FF04044002E08BF0024BEF1B5
:101DA000806FA8BFA1F1C041BDE8704080F2828081
:101DB00001F1C04101F000414FF0000070470CEA12
:101DC00013159EEA0C0F18BF95EA0C0F06D081EA96
:101DD000030E4FF000000EF0004170BD00F01CF843
:101DE0008900013E00F007B800F009B84FEA430C43
:101DF0005FEA5C5C08D081EA030100F05BB84FEA5F
:101E0000410C5FEA5C5CF6D102494FF0000070477C
:101E10000000FF070000F87F0EF1020E2EF0030E07
:101E20005EF8046B364205D4012A43EB030515F531
:101E3000001F12D8012841EB010C1CF5001F0CD823
:101E40000ED14FEAD17C0CEB4C0C0CF1020C15F5C9
:101E5000001F08BF4CEBD37C04E04FF0080C01E0FE
:101E60004FEAD37C0CEB4C0526FA05F606F0070684
:101E7000B6F1040C06D20EEB860CBDE870404CF0B7
:101E8000010C6047DFE80CF0090B02024FF0004143
:101E9000A1F500214FF0000070BD19461046012841
:101EA00051EB010418BFD4F5001484BF002001F0E9
:101EB000004170BD0808A0F500114FEA31017047DC
:101EC000F1EE100A4FF6FF71C0F2C03120EA0100B6
:101ED00040F04070E1EE100A704700000000000082
:101EE00000000102030406070809000000000102C7
:101EF00003040000000004040400020406080A0CA5
:101F000000000800000008102840587088A0B81091
:101F10002840587088A0B8102840587088A0B80091
:101F2000401F00080000002008000000F801000821
:101F3000481F000808000020680800001802000878
:081F40000024F4000000000081
:040000050800019559
:00000001FF
